{
  "_format": "hh-sol-artifact-1",
  "contractName": "AuditAnchor",
  "sourceName": "contracts/AuditAnchor.sol",
  "abi": [
    {
      "anonymous": false,
      "inputs": [
        {
          "indexed": true,
          "internalType": "uint256",
          "name": "anchorId",
          "type": "uint256"
        },
        {
          "indexed": true,
          "internalType": "bytes32",
          "name": "merkleRoot",
          "type": "bytes32"
        },
        {
          "indexed": false,
          "internalType": "uint256",
          "name": "timestamp",
          "type": "uint256"
        },
        {
          "indexed": false,
          "internalType": "address",
          "name": "submittedBy",
          "type": "address"
        }
      ],
      "name": "RootAnchored",
      "type": "event"
    },
    {
      "inputs": [],
      "name": "anchorCount",
      "outputs": [
        {
          "internalType": "uint256",
          "name": "",
          "type": "uint256"
        }
      ],
      "stateMutability": "view",
      "type": "function"
    },
    {
      "inputs": [
        {
          "internalType": "bytes32",
          "name": "merkleRoot",
          "type": "bytes32"
        }
      ],
      "name": "anchorMerkleRoot",
      "outputs": [
        {
          "internalType": "uint256",
          "name": "",
          "type": "uint256"
        }
      ],
      "stateMutability": "nonpayable",
      "type": "function"
    },
    {
      "inputs": [
        {
          "internalType": "uint256",
          "name": "",
          "type": "uint256"
        }
      ],
      "name": "anchors",
      "outputs": [
        {
          "internalType": "bytes32",
          "name": "merkleRoot",
          "type": "bytes32"
        },
        {
          "internalType": "uint256",
          "name": "timestamp",
          "type": "uint256"
        },
        {
          "internalType": "address",
          "name": "submittedBy",
          "type": "address"
        }
      ],
      "stateMutability": "view",
      "type": "function"
    },
    {
      "inputs": [
        {
          "internalType": "uint256",
          "name": "anchorId",
          "type": "uint256"
        }
      ],
      "name": "getAnchor",
      "outputs": [
        {
          "internalType": "bytes32",
          "name": "merkleRoot",
          "type": "bytes32"
        },
        {
          "internalType": "uint256",
          "name": "timestamp",
          "type": "uint256"
        },
        {
          "internalType": "address",
          "name": "submittedBy",
          "type": "address"
        }
      ],
      "stateMutability": "view",
      "type": "function"
    },
    {
      "inputs": [],
      "name": "getAnchorCount",
      "outputs": [
        {
          "internalType": "uint256",
          "name": "",
          "type": "uint256"
        }
      ],
      "stateMutability": "view",
      "type": "function"
    }
  ],
  "bytecode": "0x608060405234801561001057600080fd5b5061031c806100206000396000f3fe608060405234801561001057600080fd5b50600436106100575760003560e01c806334f96c8c1461005c578063368b733e146100785780634c7df18f146100d457806376972d8e146100e7578063d3182bed146100fa575b600080fd5b61006560015481565b6040519081526020015b60405180910390f35b6100b06100863660046102a6565b6000602081905290815260409020805460018201546002909201549091906001600160a01b031683565b6040805193845260208401929092526001600160a01b03169082015260600161006f565b6100b06100e23660046102a6565b610102565b6100656100f53660046102a6565b6101a2565b600154610065565b6000806000808411801561011857506001548411155b61015d5760405162461bcd60e51b8152602060048201526011602482015270125b9d985b1a5908185b98da1bdc881251607a1b60448201526064015b60405180910390fd5b505050600081815260208181526040918290208251606081018452815480825260018301549382018490526002909201546001600160a01b0316930183905293909250565b6000816101f15760405162461bcd60e51b815260206004820152601a60248201527f4d65726b6c6520726f6f742063616e6e6f74206265207a65726f0000000000006044820152606401610154565b60018054906000610201836102bf565b909155505060018054604080516060810182528581524260208083018281523384860181815260008881528085528790209551865591519785019790975551600290930180546001600160a01b0319166001600160a01b03909416939093179092558251908152908101939093529091849183917f87de6b1004a65808a6dd4745fea3769e1c0473b21c2eb60f0db3a0c88f0c23d1910160405180910390a392915050565b6000602082840312156102b857600080fd5b5035919050565b6000600182016102df57634e487b7160e01b600052601160045260246000fd5b506001019056fea2646970667358221220f67ce39024ef931e88365809824860f39423cbfec6d3098e29e6eb9c489a4bed64736f6c63430008130033",
  "linkReferences": {},
  "deployedLinkReferences": {}
}